{
  "contractName": "CreditLetter",
  "abi": [
    {
      "inputs": [
        {
          "internalType": "address",
          "name": "issuerVal",
          "type": "address"
        },
        {
          "internalType": "address",
          "name": "holderVal",
          "type": "address"
        },
        {
          "internalType": "address",
          "name": "acceptorVal",
          "type": "address"
        },
        {
          "internalType": "uint256",
          "name": "issuanceTimeVal",
          "type": "uint256"
        },
        {
          "internalType": "uint256",
          "name": "interestRateVal",
          "type": "uint256"
        },
        {
          "internalType": "uint256",
          "name": "creditVal",
          "type": "uint256"
        }
      ],
      "payable": false,
      "stateMutability": "nonpayable",
      "type": "constructor"
    },
    {
      "anonymous": false,
      "inputs": [
        {
          "indexed": false,
          "internalType": "uint256",
          "name": "original",
          "type": "uint256"
        },
        {
          "indexed": false,
          "internalType": "uint256",
          "name": "amount",
          "type": "uint256"
        },
        {
          "indexed": false,
          "internalType": "uint256",
          "name": "timestamp",
          "type": "uint256"
        }
      ],
      "name": "CreditChanged",
      "type": "event"
    },
    {
      "anonymous": false,
      "inputs": [
        {
          "indexed": false,
          "internalType": "address",
          "name": "from",
          "type": "address"
        },
        {
          "indexed": false,
          "internalType": "address",
          "name": "to",
          "type": "address"
        },
        {
          "indexed": false,
          "internalType": "uint256",
          "name": "timestamp",
          "type": "uint256"
        }
      ],
      "name": "HolderChanged",
      "type": "event"
    },
    {
      "anonymous": false,
      "inputs": [
        {
          "indexed": false,
          "internalType": "uint256",
          "name": "id",
          "type": "uint256"
        },
        {
          "indexed": false,
          "internalType": "bool",
          "name": "latestStatus",
          "type": "bool"
        },
        {
          "indexed": false,
          "internalType": "uint256",
          "name": "timestamp",
          "type": "uint256"
        }
      ],
      "name": "StatusChanged",
      "type": "event"
    },
    {
      "constant": true,
      "inputs": [],
      "name": "getInfo",
      "outputs": [
        {
          "internalType": "address",
          "name": "issuerVal",
          "type": "address"
        },
        {
          "internalType": "address",
          "name": "holderVal",
          "type": "address"
        },
        {
          "internalType": "address",
          "name": "acceptorVal",
          "type": "address"
        },
        {
          "internalType": "uint256",
          "name": "issuanceTimeVal",
          "type": "uint256"
        },
        {
          "internalType": "uint256",
          "name": "interestRateVal",
          "type": "uint256"
        },
        {
          "internalType": "uint256",
          "name": "creditVal",
          "type": "uint256"
        },
        {
          "internalType": "bool",
          "name": "approved",
          "type": "bool"
        },
        {
          "internalType": "bool",
          "name": "paid",
          "type": "bool"
        }
      ],
      "payable": false,
      "stateMutability": "view",
      "type": "function"
    },
    {
      "constant": false,
      "inputs": [
        {
          "internalType": "bool",
          "name": "status",
          "type": "bool"
        },
        {
          "internalType": "uint256",
          "name": "timestamp",
          "type": "uint256"
        }
      ],
      "name": "setStatusApproved",
      "outputs": [],
      "payable": false,
      "stateMutability": "nonpayable",
      "type": "function"
    },
    {
      "constant": false,
      "inputs": [
        {
          "internalType": "bool",
          "name": "status",
          "type": "bool"
        },
        {
          "internalType": "uint256",
          "name": "timestamp",
          "type": "uint256"
        }
      ],
      "name": "setStatusPaid",
      "outputs": [],
      "payable": false,
      "stateMutability": "nonpayable",
      "type": "function"
    },
    {
      "constant": false,
      "inputs": [
        {
          "internalType": "address",
          "name": "to",
          "type": "address"
        },
        {
          "internalType": "uint256",
          "name": "timestamp",
          "type": "uint256"
        }
      ],
      "name": "transfer",
      "outputs": [],
      "payable": false,
      "stateMutability": "nonpayable",
      "type": "function"
    },
    {
      "constant": false,
      "inputs": [
        {
          "internalType": "uint256",
          "name": "amount",
          "type": "uint256"
        },
        {
          "internalType": "uint256",
          "name": "timestamp",
          "type": "uint256"
        }
      ],
      "name": "resetCreditAmount",
      "outputs": [],
      "payable": false,
      "stateMutability": "nonpayable",
      "type": "function"
    }
  ],
  "bytecode": "0x60806040526000600660006101000a81548160ff0219169083151502179055506000600660016101000a81548160ff0219169083151502179055506000600755600160085534801561005057600080fd5b50604051610d33380380610d33833981810160405260c081101561007357600080fd5b810190808051906020019092919080519060200190929190805190602001909291908051906020019092919080519060200190929190805190602001909291905050508573ffffffffffffffffffffffffffffffffffffffff163273ffffffffffffffffffffffffffffffffffffffff16148061011b57508373ffffffffffffffffffffffffffffffffffffffff163273ffffffffffffffffffffffffffffffffffffffff16145b610170576040517f08c379a0000000000000000000000000000000000000000000000000000000008152600401808060200182810382526034815260200180610cff6034913960400191505060405180910390fd5b856000806101000a81548173ffffffffffffffffffffffffffffffffffffffff021916908373ffffffffffffffffffffffffffffffffffffffff16021790555084600160006101000a81548173ffffffffffffffffffffffffffffffffffffffff021916908373ffffffffffffffffffffffffffffffffffffffff16021790555083600260006101000a81548173ffffffffffffffffffffffffffffffffffffffff021916908373ffffffffffffffffffffffffffffffffffffffff16021790555082600381905550816004819055508060058190555060098590806001815401808255809150509060018203906000526020600020016000909192909190916101000a81548173ffffffffffffffffffffffffffffffffffffffff021916908373ffffffffffffffffffffffffffffffffffffffff16021790555050600a839080600181540180825580915050906001820390600052602060002001600090919290919091505550505050505050610a11806102ee6000396000f3fe608060405234801561001057600080fd5b50600436106100575760003560e01c80631c9242801461005c57806358007b86146100965780635a9b0b89146100d0578063a9059cbb146101ab578063bfe389ed146101f9575b600080fd5b6100946004803603604081101561007257600080fd5b8101908080351515906020019092919080359060200190929190505050610231565b005b6100ce600480360360408110156100ac57600080fd5b810190808035151590602001909291908035906020019092919050505061036c565b005b6100d86104e1565b604051808973ffffffffffffffffffffffffffffffffffffffff1673ffffffffffffffffffffffffffffffffffffffff1681526020018873ffffffffffffffffffffffffffffffffffffffff1673ffffffffffffffffffffffffffffffffffffffff1681526020018773ffffffffffffffffffffffffffffffffffffffff1673ffffffffffffffffffffffffffffffffffffffff16815260200186815260200185815260200184815260200183151515158152602001821515151581526020019850505050505050505060405180910390f35b6101f7600480360360408110156101c157600080fd5b81019080803573ffffffffffffffffffffffffffffffffffffffff16906020019092919080359060200190929190505050610598565b005b61022f6004803603604081101561020f57600080fd5b810190808035906020019092919080359060200190929190505050610839565b005b6000811161023e57600080fd5b600260009054906101000a900473ffffffffffffffffffffffffffffffffffffffff1673ffffffffffffffffffffffffffffffffffffffff163373ffffffffffffffffffffffffffffffffffffffff1614610301576040517f08c379a00000000000000000000000000000000000000000000000000000000081526004018080602001828103825260158152602001807f4f6e6c79206163636570746f722063616e20706179000000000000000000000081525060200191505060405180910390fd5b81600660016101000a81548160ff0219169083151502179055507f1ecf1b9cee605f7dc61806c2f40429418dbc06abbb7cfe58d1b5480f084af9a060085483836040518084815260200183151515158152602001828152602001935050505060405180910390a15050565b6000811161037957600080fd5b600260009054906101000a900473ffffffffffffffffffffffffffffffffffffffff1673ffffffffffffffffffffffffffffffffffffffff163373ffffffffffffffffffffffffffffffffffffffff16148061042157506000809054906101000a900473ffffffffffffffffffffffffffffffffffffffff1673ffffffffffffffffffffffffffffffffffffffff163373ffffffffffffffffffffffffffffffffffffffff16145b610476576040517f08c379a000000000000000000000000000000000000000000000000000000000815260040180806020018281038252602381526020018061098b6023913960400191505060405180910390fd5b81600660006101000a81548160ff0219169083151502179055507f1ecf1b9cee605f7dc61806c2f40429418dbc06abbb7cfe58d1b5480f084af9a060075483836040518084815260200183151515158152602001828152602001935050505060405180910390a15050565b6000806000806000806000806000809054906101000a900473ffffffffffffffffffffffffffffffffffffffff16600160009054906101000a900473ffffffffffffffffffffffffffffffffffffffff16600260009054906101000a900473ffffffffffffffffffffffffffffffffffffffff16600354600454600554600660009054906101000a900460ff16600660019054906101000a900460ff16975097509750975097509750975097509091929394959697565b8173ffffffffffffffffffffffffffffffffffffffff16600160009054906101000a900473ffffffffffffffffffffffffffffffffffffffff1673ffffffffffffffffffffffffffffffffffffffff1614156105f357600080fd5b6000811161060057600080fd5b600160009054906101000a900473ffffffffffffffffffffffffffffffffffffffff1673ffffffffffffffffffffffffffffffffffffffff163373ffffffffffffffffffffffffffffffffffffffff16146106c3576040517f08c379a00000000000000000000000000000000000000000000000000000000081526004018080602001828103825260188152602001807f4f6e6c7920686f6c6465722063616e207472616e73666572000000000000000081525060200191505060405180910390fd5b81600160006101000a81548173ffffffffffffffffffffffffffffffffffffffff021916908373ffffffffffffffffffffffffffffffffffffffff16021790555060093390806001815401808255809150509060018203906000526020600020016000909192909190916101000a81548173ffffffffffffffffffffffffffffffffffffffff021916908373ffffffffffffffffffffffffffffffffffffffff16021790555050600a8190806001815401808255809150509060018203906000526020600020016000909192909190915055507f0b208f30897dd37bbda3db1da3cf917bce605c53cdab4f7be8eaac32c8082f10338383604051808473ffffffffffffffffffffffffffffffffffffffff1673ffffffffffffffffffffffffffffffffffffffff1681526020018373ffffffffffffffffffffffffffffffffffffffff1673ffffffffffffffffffffffffffffffffffffffff168152602001828152602001935050505060405180910390a15050565b6000809054906101000a900473ffffffffffffffffffffffffffffffffffffffff1673ffffffffffffffffffffffffffffffffffffffff163273ffffffffffffffffffffffffffffffffffffffff1614806108e15750600260009054906101000a900473ffffffffffffffffffffffffffffffffffffffff1673ffffffffffffffffffffffffffffffffffffffff163273ffffffffffffffffffffffffffffffffffffffff16145b610936576040517f08c379a000000000000000000000000000000000000000000000000000000000815260040180806020018281038252602f8152602001806109ae602f913960400191505060405180910390fd5b816005819055507fbe251dfecb445e45c89b4940942865904cf0efeea8fb1e4aa0f340e8370c03cd600554838360405180848152602001838152602001828152602001935050505060405180910390a1505056fe4f6e6c79206163636570746f72206f72206973737565722063616e20617070726f76654f6e6c7920697373756572206f72206163636570746f722063616e2072657365742063726564697420616d6f756e74a265627a7a72315820606782ac95e3537c0d840c24d030aefaa893030381baba31237b2fc13eb8ccc764736f6c634300051000324f6e6c7920697373756572206f72206163636570746f722063616e206973737565206869732f686572206f776e206c6574746572",
  "source": "pragma solidity ^0.5.16;\n\n// A negotiable Letter of Credit\ncontract CreditLetter {\n    // Issuer of the Letter of Credit\n    address private issuer;\n\n    // Current holder of the Letter of Credit (can be transferrable)\n    address private holder;\n\n    // Acceptor of the Credit\n    address private acceptor;\n\n    // Issuance timestamp\n    uint256 private issuanceTime;\n\n    // Interest rate\n    uint256 private interestRate;\n\n    // Credit\n    uint256 private credit;\n\n    bool private statusApproved = false;\n    bool private statusPaid = false;\n\n    // Flags for status\n    uint256 private STATUS_APPROVED_ID = 0;\n    uint256 private STATUS_PAID_ID = 1;\n    event StatusChanged(uint256 id, bool latestStatus, uint256 timestamp);\n\n    // Change in holder\n    address[] private holderChangeHistory;\n    uint256[] private holderChangeTimestamps;\n    event HolderChanged(address from, address to, uint256 timestamp);\n\n    // Related to change of credit\n    event CreditChanged(uint256 original, uint256 amount, uint256 timestamp);\n\n    constructor (\n        address issuerVal,\n        address holderVal,\n        address acceptorVal,\n        uint256 issuanceTimeVal,\n        uint256 interestRateVal,\n        uint256 creditVal\n    )\n\n    public {\n        // We use tx.origin here because we need to know the original sender of the transaction\n        require (tx.origin == issuerVal || tx.origin == acceptorVal, \"Only issuer or acceptor can issue his/her own letter\");\n        issuer = issuerVal;\n        holder = holderVal;\n        acceptor = acceptorVal;\n        issuanceTime = issuanceTimeVal;\n        interestRate = interestRateVal;\n        credit = creditVal;\n        holderChangeHistory.push(holderVal);\n        holderChangeTimestamps.push(issuanceTimeVal);\n    }\n\n    function getInfo() public view returns (\n        address issuerVal,\n        address holderVal,\n        address acceptorVal,\n        uint256 issuanceTimeVal,\n        uint256 interestRateVal,\n        uint256 creditVal,\n        bool approved,\n        bool paid\n    ) {\n        return (issuer, holder, acceptor, issuanceTime, interestRate, credit, statusApproved, statusPaid);\n    }\n\n    function setStatusApproved(bool status, uint256 timestamp) public {\n        require (timestamp > 0);\n        // Only acceptors or issuers can change the approval status\n        require (msg.sender == acceptor || msg.sender == issuer, \"Only acceptor or issuer can approve\");\n        statusApproved = status;\n        emit StatusChanged(STATUS_APPROVED_ID, status, timestamp);\n    }\n    \n    function setStatusPaid(bool status, uint256 timestamp) public {\n        require (timestamp > 0);\n        // Only the acceptor can change the paid status\n        require (msg.sender == acceptor, \"Only acceptor can pay\");\n        statusPaid = status;\n        emit StatusChanged(STATUS_PAID_ID, status, timestamp);\n    }\n\n    function transfer(address to, uint256 timestamp) public {\n        require (holder != to);\n        require (timestamp > 0);\n        // Only the current holder can transfer the Letter of Credit\n        require (msg.sender == holder, \"Only holder can transfer\");\n        holder = to;\n        holderChangeHistory.push(msg.sender);\n        holderChangeTimestamps.push(timestamp);\n        emit HolderChanged(msg.sender, to, timestamp);\n    }\n\n    function resetCreditAmount(uint256 amount, uint256 timestamp) public {\n        // Think: Why use tx.origin？\n        require (tx.origin == issuer || tx.origin == acceptor, \"Only issuer or acceptor can reset credit amount\");\n        credit = amount;\n        emit CreditChanged(credit, amount, timestamp);\n    }\n}",
  "sourcePath": "/Users/jiajian/Documents/GitHub/app/blockchain/contracts/CreditLetter.sol",
  "compiler": {
    "name": "solc",
    "version": "0.5.16+commit.9c3226ce.Emscripten.clang"
  },
  "schemaVersion": "3.3.0",
  "updatedAt": "2020-10-13T08:39:05.374Z",
  "devdoc": {
    "methods": {}
  },
  "userdoc": {
    "methods": {}
  }
}