{
  "contractName": "CreditLetterFactory",
  "abi": [
    {
      "anonymous": false,
      "inputs": [
        {
          "indexed": false,
          "internalType": "address",
          "name": "addr",
          "type": "address"
        },
        {
          "indexed": false,
          "internalType": "uint256",
          "name": "timestamp",
          "type": "uint256"
        }
      ],
      "name": "CreateLog",
      "type": "event"
    },
    {
      "constant": false,
      "inputs": [
        {
          "internalType": "address",
          "name": "issuer",
          "type": "address"
        },
        {
          "internalType": "address",
          "name": "holder",
          "type": "address"
        },
        {
          "internalType": "address",
          "name": "acceptor",
          "type": "address"
        },
        {
          "internalType": "uint256",
          "name": "issuanceTime",
          "type": "uint256"
        },
        {
          "internalType": "uint256",
          "name": "interestRate",
          "type": "uint256"
        },
        {
          "internalType": "uint256",
          "name": "credit",
          "type": "uint256"
        }
      ],
      "name": "create",
      "outputs": [],
      "payable": false,
      "stateMutability": "nonpayable",
      "type": "function"
    },
    {
      "constant": false,
      "inputs": [
        {
          "internalType": "address",
          "name": "originalAddress",
          "type": "address"
        },
        {
          "internalType": "uint256",
          "name": "amount",
          "type": "uint256"
        },
        {
          "internalType": "uint256",
          "name": "timestamp",
          "type": "uint256"
        }
      ],
      "name": "split",
      "outputs": [],
      "payable": false,
      "stateMutability": "nonpayable",
      "type": "function"
    }
  ],
  "bytecode": "0x608060405234801561001057600080fd5b506111df806100206000396000f3fe608060405234801561001057600080fd5b50600436106100365760003560e01c80637f368f651461003b5780638afbc1ed146100dd575b600080fd5b6100db600480360360c081101561005157600080fd5b81019080803573ffffffffffffffffffffffffffffffffffffffff169060200190929190803573ffffffffffffffffffffffffffffffffffffffff169060200190929190803573ffffffffffffffffffffffffffffffffffffffff169060200190929190803590602001909291908035906020019092919080359060200190929190505050610135565b005b610133600480360360608110156100f357600080fd5b81019080803573ffffffffffffffffffffffffffffffffffffffff1690602001909291908035906020019092919080359060200190929190505050610222565b005b60008686868686866040516101499061046a565b808773ffffffffffffffffffffffffffffffffffffffff1673ffffffffffffffffffffffffffffffffffffffff1681526020018673ffffffffffffffffffffffffffffffffffffffff1673ffffffffffffffffffffffffffffffffffffffff1681526020018573ffffffffffffffffffffffffffffffffffffffff1673ffffffffffffffffffffffffffffffffffffffff1681526020018481526020018381526020018281526020019650505050505050604051809103906000f080158015610216573d6000803e3d6000fd5b50905050505050505050565b600083905060008060008060008573ffffffffffffffffffffffffffffffffffffffff16635a9b0b896040518163ffffffff1660e01b81526004016101006040518083038186803b15801561027657600080fd5b505afa15801561028a573d6000803e3d6000fd5b505050506040513d6101008110156102a157600080fd5b810190808051906020019092919080519060200190929190805190602001909291908051906020019092919080519060200190929190805190602001909291908051906020019092919080519060200190929190505050505095509550509450945094508573ffffffffffffffffffffffffffffffffffffffff1663bfe389ed898303896040518363ffffffff1660e01b81526004018083815260200182815260200192505050600060405180830381600087803b15801561036257600080fd5b505af1158015610376573d6000803e3d6000fd5b5050505060008585858a868d60405161038e9061046a565b808773ffffffffffffffffffffffffffffffffffffffff1673ffffffffffffffffffffffffffffffffffffffff1681526020018673ffffffffffffffffffffffffffffffffffffffff1673ffffffffffffffffffffffffffffffffffffffff1681526020018573ffffffffffffffffffffffffffffffffffffffff1673ffffffffffffffffffffffffffffffffffffffff1681526020018481526020018381526020018281526020019650505050505050604051809103906000f08015801561045b573d6000803e3d6000fd5b50905050505050505050505050565b610d33806104788339019056fe60806040526000600660006101000a81548160ff0219169083151502179055506000600660016101000a81548160ff0219169083151502179055506000600755600160085534801561005057600080fd5b50604051610d33380380610d33833981810160405260c081101561007357600080fd5b810190808051906020019092919080519060200190929190805190602001909291908051906020019092919080519060200190929190805190602001909291905050508573ffffffffffffffffffffffffffffffffffffffff163273ffffffffffffffffffffffffffffffffffffffff16148061011b57508373ffffffffffffffffffffffffffffffffffffffff163273ffffffffffffffffffffffffffffffffffffffff16145b610170576040517f08c379a0000000000000000000000000000000000000000000000000000000008152600401808060200182810382526034815260200180610cff6034913960400191505060405180910390fd5b856000806101000a81548173ffffffffffffffffffffffffffffffffffffffff021916908373ffffffffffffffffffffffffffffffffffffffff16021790555084600160006101000a81548173ffffffffffffffffffffffffffffffffffffffff021916908373ffffffffffffffffffffffffffffffffffffffff16021790555083600260006101000a81548173ffffffffffffffffffffffffffffffffffffffff021916908373ffffffffffffffffffffffffffffffffffffffff16021790555082600381905550816004819055508060058190555060098590806001815401808255809150509060018203906000526020600020016000909192909190916101000a81548173ffffffffffffffffffffffffffffffffffffffff021916908373ffffffffffffffffffffffffffffffffffffffff16021790555050600a839080600181540180825580915050906001820390600052602060002001600090919290919091505550505050505050610a11806102ee6000396000f3fe608060405234801561001057600080fd5b50600436106100575760003560e01c80631c9242801461005c57806358007b86146100965780635a9b0b89146100d0578063a9059cbb146101ab578063bfe389ed146101f9575b600080fd5b6100946004803603604081101561007257600080fd5b8101908080351515906020019092919080359060200190929190505050610231565b005b6100ce600480360360408110156100ac57600080fd5b810190808035151590602001909291908035906020019092919050505061036c565b005b6100d86104e1565b604051808973ffffffffffffffffffffffffffffffffffffffff1673ffffffffffffffffffffffffffffffffffffffff1681526020018873ffffffffffffffffffffffffffffffffffffffff1673ffffffffffffffffffffffffffffffffffffffff1681526020018773ffffffffffffffffffffffffffffffffffffffff1673ffffffffffffffffffffffffffffffffffffffff16815260200186815260200185815260200184815260200183151515158152602001821515151581526020019850505050505050505060405180910390f35b6101f7600480360360408110156101c157600080fd5b81019080803573ffffffffffffffffffffffffffffffffffffffff16906020019092919080359060200190929190505050610598565b005b61022f6004803603604081101561020f57600080fd5b810190808035906020019092919080359060200190929190505050610839565b005b6000811161023e57600080fd5b600260009054906101000a900473ffffffffffffffffffffffffffffffffffffffff1673ffffffffffffffffffffffffffffffffffffffff163373ffffffffffffffffffffffffffffffffffffffff1614610301576040517f08c379a00000000000000000000000000000000000000000000000000000000081526004018080602001828103825260158152602001807f4f6e6c79206163636570746f722063616e20706179000000000000000000000081525060200191505060405180910390fd5b81600660016101000a81548160ff0219169083151502179055507f1ecf1b9cee605f7dc61806c2f40429418dbc06abbb7cfe58d1b5480f084af9a060085483836040518084815260200183151515158152602001828152602001935050505060405180910390a15050565b6000811161037957600080fd5b600260009054906101000a900473ffffffffffffffffffffffffffffffffffffffff1673ffffffffffffffffffffffffffffffffffffffff163373ffffffffffffffffffffffffffffffffffffffff16148061042157506000809054906101000a900473ffffffffffffffffffffffffffffffffffffffff1673ffffffffffffffffffffffffffffffffffffffff163373ffffffffffffffffffffffffffffffffffffffff16145b610476576040517f08c379a000000000000000000000000000000000000000000000000000000000815260040180806020018281038252602381526020018061098b6023913960400191505060405180910390fd5b81600660006101000a81548160ff0219169083151502179055507f1ecf1b9cee605f7dc61806c2f40429418dbc06abbb7cfe58d1b5480f084af9a060075483836040518084815260200183151515158152602001828152602001935050505060405180910390a15050565b6000806000806000806000806000809054906101000a900473ffffffffffffffffffffffffffffffffffffffff16600160009054906101000a900473ffffffffffffffffffffffffffffffffffffffff16600260009054906101000a900473ffffffffffffffffffffffffffffffffffffffff16600354600454600554600660009054906101000a900460ff16600660019054906101000a900460ff16975097509750975097509750975097509091929394959697565b8173ffffffffffffffffffffffffffffffffffffffff16600160009054906101000a900473ffffffffffffffffffffffffffffffffffffffff1673ffffffffffffffffffffffffffffffffffffffff1614156105f357600080fd5b6000811161060057600080fd5b600160009054906101000a900473ffffffffffffffffffffffffffffffffffffffff1673ffffffffffffffffffffffffffffffffffffffff163373ffffffffffffffffffffffffffffffffffffffff16146106c3576040517f08c379a00000000000000000000000000000000000000000000000000000000081526004018080602001828103825260188152602001807f4f6e6c7920686f6c6465722063616e207472616e73666572000000000000000081525060200191505060405180910390fd5b81600160006101000a81548173ffffffffffffffffffffffffffffffffffffffff021916908373ffffffffffffffffffffffffffffffffffffffff16021790555060093390806001815401808255809150509060018203906000526020600020016000909192909190916101000a81548173ffffffffffffffffffffffffffffffffffffffff021916908373ffffffffffffffffffffffffffffffffffffffff16021790555050600a8190806001815401808255809150509060018203906000526020600020016000909192909190915055507f0b208f30897dd37bbda3db1da3cf917bce605c53cdab4f7be8eaac32c8082f10338383604051808473ffffffffffffffffffffffffffffffffffffffff1673ffffffffffffffffffffffffffffffffffffffff1681526020018373ffffffffffffffffffffffffffffffffffffffff1673ffffffffffffffffffffffffffffffffffffffff168152602001828152602001935050505060405180910390a15050565b6000809054906101000a900473ffffffffffffffffffffffffffffffffffffffff1673ffffffffffffffffffffffffffffffffffffffff163273ffffffffffffffffffffffffffffffffffffffff1614806108e15750600260009054906101000a900473ffffffffffffffffffffffffffffffffffffffff1673ffffffffffffffffffffffffffffffffffffffff163273ffffffffffffffffffffffffffffffffffffffff16145b610936576040517f08c379a000000000000000000000000000000000000000000000000000000000815260040180806020018281038252602f8152602001806109ae602f913960400191505060405180910390fd5b816005819055507fbe251dfecb445e45c89b4940942865904cf0efeea8fb1e4aa0f340e8370c03cd600554838360405180848152602001838152602001828152602001935050505060405180910390a1505056fe4f6e6c79206163636570746f72206f72206973737565722063616e20617070726f76654f6e6c7920697373756572206f72206163636570746f722063616e2072657365742063726564697420616d6f756e74a265627a7a72315820606782ac95e3537c0d840c24d030aefaa893030381baba31237b2fc13eb8ccc764736f6c634300051000324f6e6c7920697373756572206f72206163636570746f722063616e206973737565206869732f686572206f776e206c6574746572a265627a7a72315820af908959395c4af8019af0a67a220efcd9ea250c806b220fd72bbb329e9964a264736f6c63430005100032",
  "source": "pragma solidity ^0.5.16;\n\nimport \"./CreditLetter.sol\";\n\ncontract CreditLetterFactory {\n    event CreateLog(address addr, uint256 timestamp);\n    function create(\n        address issuer,\n        address holder,\n        address acceptor,\n        uint256 issuanceTime,\n        uint256 interestRate,\n        uint256 credit\n    ) public { \n        CreditLetter creditLetter = new CreditLetter(issuer, holder, acceptor, issuanceTime, interestRate, credit);\n    }\n\n    function split(address originalAddress, uint256 amount, uint256 timestamp) public {\n        CreditLetter originalLetter = CreditLetter(originalAddress);\n        (address issuer, address holder, address acceptor, , uint256 interestRate, uint256 credit, , ) = originalLetter.getInfo();\n        originalLetter.resetCreditAmount(credit - amount, timestamp);\n        CreditLetter creditLetter = new CreditLetter(issuer, holder, acceptor, timestamp, interestRate, amount);\n    }\n}",
  "sourcePath": "/Users/jiajian/Documents/GitHub/app/blockchain/contracts/CreditLetterFactory.sol",
  "compiler": {
    "name": "solc",
    "version": "0.5.16+commit.9c3226ce.Emscripten.clang"
  },
  "schemaVersion": "3.3.0",
  "updatedAt": "2020-10-13T08:39:05.381Z",
  "devdoc": {
    "methods": {}
  },
  "userdoc": {
    "methods": {}
  }
}