{
  "contractName": "SmartInsurance",
  "abi": [
    {
      "inputs": [
        {
          "internalType": "string",
          "name": "_flightCode",
          "type": "string"
        },
        {
          "internalType": "string",
          "name": "_flightDate",
          "type": "string"
        }
      ],
      "stateMutability": "payable",
      "type": "constructor"
    },
    {
      "inputs": [
        {
          "internalType": "address",
          "name": "",
          "type": "address"
        }
      ],
      "name": "balances",
      "outputs": [
        {
          "internalType": "uint256",
          "name": "",
          "type": "uint256"
        }
      ],
      "stateMutability": "view",
      "type": "function"
    },
    {
      "inputs": [],
      "name": "escrow",
      "outputs": [
        {
          "internalType": "address payable",
          "name": "",
          "type": "address"
        }
      ],
      "stateMutability": "view",
      "type": "function"
    },
    {
      "inputs": [],
      "name": "flightCode",
      "outputs": [
        {
          "internalType": "string",
          "name": "",
          "type": "string"
        }
      ],
      "stateMutability": "view",
      "type": "function"
    },
    {
      "inputs": [],
      "name": "flightDate",
      "outputs": [
        {
          "internalType": "string",
          "name": "",
          "type": "string"
        }
      ],
      "stateMutability": "view",
      "type": "function"
    },
    {
      "inputs": [],
      "name": "insured",
      "outputs": [
        {
          "internalType": "address payable",
          "name": "",
          "type": "address"
        }
      ],
      "stateMutability": "view",
      "type": "function"
    },
    {
      "inputs": [
        {
          "internalType": "uint256",
          "name": "",
          "type": "uint256"
        }
      ],
      "name": "insurers",
      "outputs": [
        {
          "internalType": "address payable",
          "name": "",
          "type": "address"
        }
      ],
      "stateMutability": "view",
      "type": "function"
    },
    {
      "inputs": [],
      "name": "premium",
      "outputs": [
        {
          "internalType": "uint256",
          "name": "",
          "type": "uint256"
        }
      ],
      "stateMutability": "view",
      "type": "function"
    },
    {
      "inputs": [],
      "name": "status",
      "outputs": [
        {
          "internalType": "enum SmartInsurance.Status",
          "name": "",
          "type": "uint8"
        }
      ],
      "stateMutability": "view",
      "type": "function"
    },
    {
      "inputs": [],
      "name": "insure",
      "outputs": [],
      "stateMutability": "payable",
      "type": "function"
    },
    {
      "inputs": [],
      "name": "getBalance",
      "outputs": [
        {
          "internalType": "uint256",
          "name": "",
          "type": "uint256"
        }
      ],
      "stateMutability": "view",
      "type": "function"
    },
    {
      "inputs": [],
      "name": "getStatus",
      "outputs": [
        {
          "internalType": "enum SmartInsurance.Status",
          "name": "",
          "type": "uint8"
        }
      ],
      "stateMutability": "view",
      "type": "function"
    },
    {
      "inputs": [
        {
          "internalType": "uint8",
          "name": "_status",
          "type": "uint8"
        }
      ],
      "name": "setState",
      "outputs": [],
      "stateMutability": "nonpayable",
      "type": "function"
    },
    {
      "inputs": [
        {
          "internalType": "uint8",
          "name": "_hours",
          "type": "uint8"
        }
      ],
      "name": "payout",
      "outputs": [],
      "stateMutability": "nonpayable",
      "type": "function"
    }
  ],
  "bytecode": "0x6080604052600060015573feb87197abd18ddabd28b58b205936dfb4569b17600460006101000a81548173ffffffffffffffffffffffffffffffffffffffff021916908373ffffffffffffffffffffffffffffffffffffffff16021790555060405162000f0338038062000f03833981810160405260408110156200008357600080fd5b8101908080516040519392919084640100000000821115620000a457600080fd5b83820191506020820185811115620000bb57600080fd5b8251866001820283011164010000000082111715620000d957600080fd5b8083526020830192505050908051906020019080838360005b838110156200010f578082015181840152602081019050620000f2565b50505050905090810190601f1680156200013d5780820380516001836020036101000a031916815260200191505b50604052602001805160405193929190846401000000008211156200016157600080fd5b838201915060208201858111156200017857600080fd5b82518660018202830111640100000000821117156200019657600080fd5b8083526020830192505050908051906020019080838360005b83811015620001cc578082015181840152602081019050620001af565b50505050905090810190601f168015620001fa5780820380516001836020036101000a031916815260200191505b50604052505050600034116200025c576040517f08c379a000000000000000000000000000000000000000000000000000000000815260040180806020018281038252602481526020018062000edf6024913960400191505060405180910390fd5b33600060016101000a81548173ffffffffffffffffffffffffffffffffffffffff021916908373ffffffffffffffffffffffffffffffffffffffff1602179055508160059080519060200190620002b5929190620003a6565b508060069080519060200190620002ce929190620003a6565b50620002eb346001546200031d60201b6200094e1790919060201c565b60018190555060016000806101000a81548160ff021916908360058111156200031057fe5b0217905550505062000455565b6000808284019050838110156200039c576040517f08c379a000000000000000000000000000000000000000000000000000000000815260040180806020018281038252601b8152602001807f536166654d6174683a206164646974696f6e206f766572666c6f77000000000081525060200191505060405180910390fd5b8091505092915050565b828054600181600116156101000203166002900490600052602060002090601f016020900481019282601f10620003e957805160ff19168380011785556200041a565b828001600101855582156200041a579182015b8281111562000419578251825591602001919060010190620003fc565b5b5090506200042991906200042d565b5090565b6200045291905b808211156200044e57600081600090555060010162000434565b5090565b90565b610a7a80620004656000396000f3fe6080604052600436106100c25760003560e01c806356de96db1161007f578063e0a73a9311610059578063e0a73a931461036f578063e2fdcc171461039a578063e5ee64c3146103f1578063eebb13631461046c576100c2565b806356de96db14610211578063c8160db81461024f578063d27872d0146102df576100c2565b806312065fe0146100c7578063153f2b4b146100f2578063200d2ed21461013057806327e235e3146101695780633c3ce17d146101ce5780634e69d560146101d8575b600080fd5b3480156100d357600080fd5b506100dc6104c3565b6040518082815260200191505060405180910390f35b3480156100fe57600080fd5b5061012e6004803603602081101561011557600080fd5b81019080803560ff1690602001909291905050506104cb565b005b34801561013c57600080fd5b506101456105ee565b6040518082600581111561015557fe5b60ff16815260200191505060405180910390f35b34801561017557600080fd5b506101b86004803603602081101561018c57600080fd5b81019080803573ffffffffffffffffffffffffffffffffffffffff169060200190929190505050610600565b6040518082815260200191505060405180910390f35b6101d6610618565b005b3480156101e457600080fd5b506101ed61076b565b604051808260058111156101fd57fe5b60ff16815260200191505060405180910390f35b34801561021d57600080fd5b5061024d6004803603602081101561023457600080fd5b81019080803560ff169060200190929190505050610781565b005b34801561025b57600080fd5b50610264610784565b6040518080602001828103825283818151815260200191508051906020019080838360005b838110156102a4578082015181840152602081019050610289565b50505050905090810190601f1680156102d15780820380516001836020036101000a031916815260200191505b509250505060405180910390f35b3480156102eb57600080fd5b506102f4610822565b6040518080602001828103825283818151815260200191508051906020019080838360005b83811015610334578082015181840152602081019050610319565b50505050905090810190601f1680156103615780820380516001836020036101000a031916815260200191505b509250505060405180910390f35b34801561037b57600080fd5b506103846108c0565b6040518082815260200191505060405180910390f35b3480156103a657600080fd5b506103af6108c6565b604051808273ffffffffffffffffffffffffffffffffffffffff1673ffffffffffffffffffffffffffffffffffffffff16815260200191505060405180910390f35b3480156103fd57600080fd5b5061042a6004803603602081101561041457600080fd5b81019080803590602001909291905050506108ec565b604051808273ffffffffffffffffffffffffffffffffffffffff1673ffffffffffffffffffffffffffffffffffffffff16815260200191505060405180910390f35b34801561047857600080fd5b50610481610928565b604051808273ffffffffffffffffffffffffffffffffffffffff1673ffffffffffffffffffffffffffffffffffffffff16815260200191505060405180910390f35b600047905090565b600460009054906101000a900473ffffffffffffffffffffffffffffffffffffffff1673ffffffffffffffffffffffffffffffffffffffff163373ffffffffffffffffffffffffffffffffffffffff1614610571576040517f08c379a000000000000000000000000000000000000000000000000000000000815260040180806020018281038252603b815260200180610a0a603b913960400191505060405180910390fd5b60038160ff16106105ea57600060019054906101000a900473ffffffffffffffffffffffffffffffffffffffff1673ffffffffffffffffffffffffffffffffffffffff166108fc479081150290604051600060405180830381858888f193505050501580156105e4573d6000803e3d6000fd5b506105eb565b5b50565b6000809054906101000a900460ff1681565b60036020528060005260406000206000915090505481565b60003411610671576040517f08c379a00000000000000000000000000000000000000000000000000000000081526004018080602001828103825260338152602001806109d76033913960400191505060405180910390fd5b6002339080600181540180825580915050600190039060005260206000200160009091909190916101000a81548173ffffffffffffffffffffffffffffffffffffffff021916908373ffffffffffffffffffffffffffffffffffffffff16021790555061072634600360003373ffffffffffffffffffffffffffffffffffffffff1673ffffffffffffffffffffffffffffffffffffffff1681526020019081526020016000205461094e90919063ffffffff16565b600360003373ffffffffffffffffffffffffffffffffffffffff1673ffffffffffffffffffffffffffffffffffffffff16815260200190815260200160002081905550565b60008060009054906101000a900460ff16905090565b50565b60068054600181600116156101000203166002900480601f01602080910402602001604051908101604052809291908181526020018280546001816001161561010002031660029004801561081a5780601f106107ef5761010080835404028352916020019161081a565b820191906000526020600020905b8154815290600101906020018083116107fd57829003601f168201915b505050505081565b60058054600181600116156101000203166002900480601f0160208091040260200160405190810160405280929190818152602001828054600181600116156101000203166002900480156108b85780601f1061088d576101008083540402835291602001916108b8565b820191906000526020600020905b81548152906001019060200180831161089b57829003601f168201915b505050505081565b60015481565b600460009054906101000a900473ffffffffffffffffffffffffffffffffffffffff1681565b600281815481106108f957fe5b906000526020600020016000915054906101000a900473ffffffffffffffffffffffffffffffffffffffff1681565b600060019054906101000a900473ffffffffffffffffffffffffffffffffffffffff1681565b6000808284019050838110156109cc576040517f08c379a000000000000000000000000000000000000000000000000000000000815260040180806020018281038252601b8152602001807f536166654d6174683a206164646974696f6e206f766572666c6f77000000000081525060200191505060405180910390fd5b809150509291505056fe596f75206d75737420696e73757265207468697320696e737572616e63652077697468206174206c656173742031207765692e4f6e6c79204772696666696e496e737572616e6365277320657363726f7720736572766963652063616e2063616c6c2074686973206d6574686f64a2646970667358221220cd831e0f167ea99c8753e5bb68af4cb6a518d14e2b44d67a2f2fa5095bb9a91664736f6c63430006000033596f7572207072656d69756d206d757374206265206174206c656173742031207765692e",
  "source": "pragma solidity ^0.6.0;\n\nimport \"./SafeMath.sol\";\n\ncontract SmartInsurance {\n    using SafeMath for uint256;\n\n    enum Status { AWAITING_PREMIUM, AWAITING_FUNDING, FUNDED, IN_FORCE, PAID_OUT, EXPIRED }\n    \n    // Status the current Status of the insurance contract\n    Status public status;\n    \n    // Stores the Etheruem address of the insured, it's payable so that the insured address can receive payouts\n    address payable public insured;\n    uint256 public premium = 0;\n    \n    // As there can be many insurers, we use an array\n    // It's also payable in case it expires\n    address payable[] public insurers;\n    mapping(address => uint256) public balances;\n    \n    // Our address, not sure if we need this\n    address payable public escrow = payable(0xfeB87197aBd18dDaBD28B58b205936dfB4569B17);\n    \n    string public flightCode;\n    string public flightDate;\n    \n    modifier onlyInsured() {\n        require(msg.sender == insured, \"Only insured can call this method\");\n        _;\n    }\n    \n    modifier onlyEscrow() {\n        require(msg.sender == escrow, \"Only GriffinInsurance's escrow service can call this method\");\n        _;\n    }\n    \n    constructor(string memory _flightCode, string memory _flightDate) payable public {\n        require(msg.value > 0, \"Your premium must be at least 1 wei.\");\n        insured = msg.sender;\n        flightCode = _flightCode;\n        flightDate = _flightDate;\n        premium = premium.add(msg.value);\n        status = Status.AWAITING_FUNDING;\n    }\n    \n    function insure() payable public {\n        require(msg.value > 0, \"You must insure this insurance with at least 1 wei.\");\n        insurers.push(msg.sender);\n        balances[msg.sender] = balances[msg.sender].add(msg.value);\n    }\n\n    function getBalance() public view returns(uint256) {\n        return address(this).balance;\n    }\n    \n    function getStatus() public view returns(Status) {\n        return status;\n    }\n    \n    function setState(uint8 _status) public {\n        \n    }\n    \n    // Only we can control this function\n    function payout(uint8 _hours) onlyEscrow public {\n        if (_hours >= 3) {\n            insured.transfer(address(this).balance);\n        } else {\n            // TODO\n        }\n    }\n    \n    // function percentOfPool(address _insurer) public view returns(uint256) {\n    //     // We exclude premium from the calculation\n    //     uint256 balance = address(this).balance;\n    //     uint256 insurersPool = balance.sub(premium);\n    //     uint256 insurerShare = balances[_insurer];\n    //     return insurerShare / insurersPool;\n    // }\n}",
  "sourcePath": "/Users/jiajian/Documents/GitHub/app/src/blockchain/contracts/SmartInsurance.sol",
  "compiler": {
    "name": "solc",
    "version": "0.6.0+commit.26b70077.Emscripten.clang"
  },
  "schemaVersion": "3.3.0",
  "updatedAt": "2020-10-29T17:10:26.601Z",
  "devdoc": {
    "methods": {}
  },
  "userdoc": {
    "methods": {}
  }
}